:020000040800F2
:1000000018C20020C1010008F1160008B113000851
:10001000ED1600084D0D00082D2500080000000019
:100020000000000000000000000000002919000886
:10003000F70D0008000000006D1700088D1A000879
:10004000DB010008DB010008DB010008DB01000820
:10005000DB010008DB010008DB010008DB01000810
:10006000DB010008DB010008DB010008DB01000800
:10007000DB010008DB010008DB010008DB010008F0
:10008000DB010008DB010008DB010008DB010008E0
:10009000DB010008DB010008DB010008DB010008D0
:1000A000DB010008DB010008DB010008DB010008C0
:1000B000411C0008DB010008DB010008DB0100082F
:1000C000DB010008DB010008DB010008DB010008A0
:1000D000DB0100088120000891200008A120000811
:1000E000F90D0008DB010008DB010008DB01000856
:1000F000DB010008DB010008DB010008DB01000870
:10010000DB010008DB010008DB010008DB0100085F
:10011000DB010008DB010008DB010008DB0100084F
:10012000DB010008DB010008DB010008DB0100083F
:10013000DB010008DB010008DB010008DB0100082F
:10014000DB010008DB010008DB010008DB0100081F
:10015000DB010008DB010008DB010008B12000081A
:10016000DB010008DB010008DB010008DB010008FF
:10017000DB010008DB010008DB010008DB010008EF
:10018000DB010008DB010008DB010008DB010008DF
:10019000DB010008DB010008DB010008DB010008CF
:1001A000DB010008DB010008DB010008DFF80CD0F0
:1001B00000F006FB004800470936000818C200207E
:1001C0000648804706480047FEE7FEE7FEE7FEE7F1
:1001D000FEE7FEE7FEE7FEE7FEE7FEE7D91B0008C5
:1001E000AD0100082DE9FE4F804681EA0300C00FF3
:1001F0000C46009021F0004123F00045B8EB0200CE
:10020000A94105D24046214690461C460B4602466F
:1002100023F00040104347D0270DC7F30A00C3F373
:100220000A510290401A019040286BDAC3F3130080
:1002300040F4801B0098924620B10023D2EB030AC1
:1002400063EB0B0B01985946C0F14002504600F099
:10025000D8F906460D4650465946019A00F0E0F995
:1002600010EB08006141002487EA115284EAE77329
:100270001A4340D0009A62B3019A012A4FEA07520A
:1002800015DC001B61EB02014FF0004202EA07524D
:10029000CDE90042001C41F5801132462B4600F0AA
:1002A00015FA03B0BDE8F08F40462146F9E7001B80
:1002B00061EB0201001C41F5801300185B4120181E
:1002C000A2F5001747EB030140EAD570B6196D415E
:1002D00011E06D084FEA360645EAC0754FEA07524D
:1002E000001B61EB0201001C41F5801149084FEA37
:1002F00030000019514132462B4603B0BDE8F04FA3
:1003000000F0D7B90098012240000023D0EB020290
:1003100063EBE073009821464FEAE074B8EB00000D
:1003200061EB0401E9E783F000435BE781F0004102
:1003300058E72DE9FE4F81EA030404F0004421F060
:10034000004100944FF0000B23F0004350EA0104F9
:100350005ED052EA03045BD0C3F30A54C1F30A55DA
:100360002C44A4F2F3340194A0FB0254C1F3130112
:1003700041F48011C3F3130343F4801301FB0244DF
:1003800000FB034E840A970A44EA815447EA8357E4
:10039000A4FB076802958D0A05FB07854FEA932C9D
:1003A00004FB0C542705029D4FEA065847EA16370E
:1003B000B5EB08056EEB070C870E920E47EA811726
:1003C00042EA8312A7FB0201B6EB0B0164EB0004C7
:1003D0002B0D43EA0C335E1844EB1C50DA465146B1
:1003E000E7FB0201C5F313044FEA0B3343EA14534E
:1003F0004FEA0432019C43EA0603A4F10C04029480
:10040000009CCDE900B400F061F903B0BDE8F08FC5
:1004100000200146F9E72DE9F04D81EA030404F0DC
:10042000004B21F0004514464FF0000A23F0004134
:1004300050EA050220D054EA01021DD0C5F30A5744
:100440000246C5F31303C1F31300C1F30A5640F487
:10045000801543F48013A7EB0608101BD64608F25C
:10046000FD3873EB050002D308F1010801E0921892
:100470005B41B8F1000F03DA00200146BDE8F08DC2
:1004800000204FF48011064684460EE0171B73EBE4
:10049000050705D3121B63EB050306434CEA010C69
:1004A00049084FEA300092185B4150EA0107EDD14C
:1004B00052EA030012D082EA040083EA05010843ED
:1004C00005D0101BAB4106D20122002306E000221A
:1004D0004FF0004302E06FF0010253101AEB0600E8
:1004E0004CEB085110EB0A0041EB0B01BDE8F04D5D
:1004F00000F0DFB80EB5C10F80EAE0700844CA070B
:10050000002140F233438DE80E000A460B4600F00E
:10051000DDF803B000BD00F0004230F000400AD02A
:10052000C10D01F56071C0F3160042EA0151C20825
:1005300040071143704700200146704701F0004317
:1005400030B421F0004150EA010206D00A0DA2F5B4
:100550006072C1F31301002A02DC30BC0020704736
:10056000440F44EAC104C100E01830BC00EBC250A3
:1005700000F068B830B50B46014600202022012467
:1005800009E021FA02F59D4205D303FA02F5491B61
:1005900004FA02F52844151EA2F10102F1DC30BD77
:1005A0002DE9F05F0546002092469B4688460646A8
:1005B000814640241BE0284641464746224600F03B
:1005C00011F953465A46C01A914110D311461846A4
:1005D000224600F016F82D1A67EB01084F46224616
:1005E0000120002100F00DF817EB00094E41201EFC
:1005F000A4F10104DFDC484631462A464346BDE803
:10060000F09F202A04DB203A00FA02F10020704714
:100610009140C2F1200320FA03F319439040704740
:10062000202A06DBCB17203A41FA02F043EAE073B6
:1006300006E041FA02F3D040C2F1200291400843A3
:10064000194670470029A8BF7047401C490008BFE1
:1006500020F00100704710B4B0FA80FC00FA0CF0F2
:1006600050EA010404BF10BC704749B1CCF120042A
:1006700021FA04F411FA0CF118BF012121430843B7
:10068000A3EB0C01CB1D4FEA00614FEA102042BFE3
:10069000002010BC704700EBC35010440029A4BFD9
:1006A00010BC7047401C490008BF20F0010010BC7E
:1006B000704710B5002B08DA401C41F10001921878
:1006C0005B411A4301D120F0010010BD2DE9F04D2E
:1006D00092469B4611B1B1FA81F202E0B0FA80F283
:1006E00020329046FFF78DFF04460F4640EA0A008D
:1006F00041EA0B0153465A46084313D0114653EAC8
:10070000010019D0C8F14002504600F06BF80546D0
:100710000E46504659464246FFF773FF084305D040
:10072000012004E020463946BDE8F08D0020054355
:1007300046EAE0762C4337430A986305E40AA0EBC7
:1007400008000022FD0A44EA47540A3002D500207E
:100750000146E9E7010510196941DDE9084500197D
:100760006941BDE8F04DA4E7C1F30A52C1F313019A
:1007700040F2FF3341F480119A4202DA0020014630
:10078000704740F233439A42A2F2334202DC5242B3
:1007900000F028B8FFF735BF30B5002904DB4FF073
:1007A0000044404264EB0101002B04DB4FF00044A5
:1007B000524264EB0303994208BF904230BD0000EF
:1007C000064C074D06E0E06840F0010394E807009E
:1007D00098471034AC42F6D3FFF7ECFCC83B000856
:1007E000E83B0008202A04DB203A21FA02F000212D
:1007F000704721FA02F3D040C2F120029140084331
:10080000194670471CB50121084600F0C1FF0121BF
:10081000582000F0ADFF0C2200213F4800F060FCA2
:100820000C2201213C4800F05BFC0C2204213A48D8
:1008300000F056FC0C220521374800F051FC0C2238
:100840000821354800F04CFC0C220921324800F008
:1008500047FC0C220A21304800F042FC0C220E21F9
:100860002D4800F03DFC0C220F212B4800F038FCF5
:1008700002208DF8040003208DF8050000208DF87B
:1008800006008DF807004CF233700090694622484C
:1008900000F0DEFB0C220721204800F021FC0C2296
:1008A00008211E4800F01CFC0C2209211B4800F006
:1008B00017FC0C220A21194800F012FC0C220B2113
:1008C000164800F00DFC0C221146144800F008FCFC
:1008D0000C220D21114800F003FC0C220E210F48C0
:1008E00000F0FEFB0C220F210C4800F0F9FB4FF644
:1008F000807000906946094800F0AAFB0C2211465E
:10090000074800F0EDFB4FF4805000906946044822
:1009100000F09EFB1CBD0000000C024000100240D5
:100920000018024010B586B0044641F28830012319
:100930001F4A9115CDE900401E4802F005FD012136
:10094000042000F015FF0121880300F041FF002082
:100950008DF80C008DF80F004FF40050029002A9A2
:10096000154800F075FB0D21022000F0DFFF4FF469
:100970000050049000208DF814000C208DF8150014
:1009800001208DF8160004A800F056FA28208DF8F2
:10099000040006208DF8050000208DF806000120D7
:1009A0008DF8070001A800F0A5FE06B010BD0000FC
:1009B000001C0040001402400008024000B597B03F
:1009C0000320009000200190062002900120039057
:1009D00000200490059006900620079000200890C3
:1009E000099020200A9000200B900C900D900E9002
:1009F0004FF480500F90002010901190129013909F
:100A00001490CDF854D0CDF858D007A800F078FA5B
:100A10000121062000F05AFA17B000BD00B500F021
:100A200065F8002222E0134850F82210124843884B
:100A3000083040F8231008384088401C80B20E4926
:100A40004880B0F5006F01DB002048800A488088AC
:100A5000B0F5006F05DA08488088401C0649888098
:100A600002E0012004498871501CC2B2102ADADB6E
:100A700000BD0000D02100201022002000202BE02B
:100A8000174931F8201009B2164A22F810101449FB
:100A9000091F497879B9114631F8101041F28832AE
:100AA00011FB02F147F6FF7291FBF2F109B20E4A17
:100AB00022F810100EE00B4931F8101042F21072BB
:100AC00011FB02F147F6FF7291FBF2F109B2064AFF
:100AD00022F81010411CC8B20828D1DB7047000072
:100AE000D021002084000020740000204FF0D84066
:100AF0000068134948604FF0D84001681048816091
:100B00004FF0D84001680E48C1604FF0D8400168EE
:100B10000B4801614FF0D8400168094841614FF02E
:100B2000D8400168064881614FF0D8400168044808
:100B3000C1614FF0D8400168014801627047000070
:100B4000CC21002010B500214FF0807000F01CFC7B
:100B50000121080600F018FC0121080600F014FC31
:100B60000121080600F010FC0121080600F00CFC31
:100B700000214FF0807000F007FC10BD10B5044656
:100B800044B900200749487000214FF0007000F080
:100B9000FBFB06E00120034948700121400600F0FC
:100BA000F3FB10BDCC21002010B504463B48047077
:100BB000072C5CD2DFE804F05C041322303F4D00C8
:100BC00000214FF4004000F0DFFB00214FF4804093
:100BD00000F0DAFB0121480300F0D6FB5BE00021C6
:100BE0004FF4004000F0D0FB0121880300F0CCFB63
:100BF00000214FF4005000F0C7FB4CE000214FF4FF
:100C0000004000F0C1FB0121880300F0BDFB012181
:100C1000480300F0B9FB3EE00121C80300F0B4FB3B
:100C200000214FF4804000F0AFFB00214FF4005052
:100C300000F0AAFB2FE00121C80300F0A5FB002172
:100C40004FF4804000F0A0FB0121480300F09CFB22
:100C500021E00121C80300F097FB0121880300F087
:100C600093FB00214FF4005000F08EFB13E000BF17
:100C700000200A49087000214FF4004000F084FB76
:100C800000214FF4804000F07FFB00214FF4005022
:100C900000F07AFB00BF00BF10BD0000CC21002097
:100CA0004FF480700349088008800880891E0880FE
:100CB000704700001A14024010B5044600F010F806
:100CC000FFF740FFFFF7ECFF002004490880488051
:100CD000888088712046FFF725FE10BD1022002075
:100CE0001CB50021164801F008F80121042000F08D
:100CF0003FFD01208DF8040003208DF80500002041
:100D00008DF806008DF807004FF4005000906946FA
:100D10000C4800F09DF94FF40050009000208DF831
:100D200004000C208DF8050000208DF806006846B0
:100D300000F082F84FF48070034908801CBD000069
:100D4000001C0040000802401814024000BFFEE7EB
:100D5000014609B90B487047012901D10A48FAE751
:100D6000022901D10948F6E7032901D10020F2E761
:100D7000042901D10020EEE7052901D10448EAE762
:100D80000020E8E708010020300900205811002069
:100D90008019002008B525208DF8000000208DF86E
:100DA000020001208DF80300684600F0A3FC262015
:100DB0008DF8000001208DF802008DF803006846D0
:100DC00000F098FC27208DF8000002208DF802002A
:100DD00001208DF80300684600F08CFC47208DF858
:100DE000000005208DF8020001208DF80300684600
:100DF00000F080FC08BD704710B54FF4005000F0C3
:100E00000FF828B1FFF70AFE4FF4005000F002F887
:100E100010BD00000149086070470000143C01400B
:100E200001460020034A12680A400AB1012000E08E
:100E300000207047143C0140002123498279002A98
:100E40003AD00A46126803689A430B461A600A1D94
:100E5000126803689A430B1D1A60027911440A68EC
:100E600003681A430A60184A0832126803689A43F2
:100E7000154B08331A601A1D126803689A43124B07
:100E80000C331A604279102A0ED11A1F12680368B7
:100E90001A430D4B08331A601A1D126803681A436F
:100EA000094B0C331A600DE00749427911440A6876
:100EB00003681A430A6005E0027911440A6803686E
:100EC0009A430A6070470000003C014051B1820023
:100ED000A2F1C042126842F001038200A2F1C042B6
:100EE000136009E08200A2F1C0421268034B1A406D
:100EF0008300A3F1C0431A6070470000FEFF0F009B
:100F000030B50023002100220468A400A4F1C044ED
:100F100021684D4C2140D0E901452C43C5682C4344
:100F200005692C4345692C4385692C43C5692C43CD
:100F3000056A2C43456A2C43856A2C43C56A2C43B9
:100F4000056B2C43456B2C4321430468A400A4F19A
:100F5000C04421608468082C0BD10468A400A4F16B
:100F6000C044246844F040050468A400A4F1C044CF
:100F70002560446BB4F5801F19D10468BCB14FF0F3
:100F80002044646824F470034FF020442468456BC7
:100F90002C434FF020452C602C46246844F4807488
:100FA0002C60846B248A641E43EA04546C60846B56
:100FB0002468856B6D6844EA0514856BAD6844EA66
:100FC0000524856BAD8944EA0544856B2D8A44EA86
:100FD0000554856B2D7D44EA0564856BAD692C4312
:100FE00005686D1CAD00A5F1C0452C60846AB4F5A0
:100FF000804F20D10468A400A4F1C044D4F8042197
:10100000124C2240C46B2468C56B6D6844EA051419
:10101000C56BAD6844EA0524C56BAD8944EA054457
:10102000C56BAD692C4322430468A400A4F1C044FD
:10103000C4F8042107E06FF070450468A400A4F12F
:10104000C044C4F8045130BD8000E7FF0000F0CF79
:10105000F0B50A4600210023002400BF3DE0012531
:1010600005FA01F3156805EA03049C4234D10568CA
:101070004F000326BE40B543056015794E00B540CC
:101080000668354305601579012D02D01579022DCA
:1010900016D185684F000326BE40B543856055795B
:1010A0004E00B540866835438560456801268E4010
:1010B000B5434560456896798E40B6B23543456084
:1010C000C5684F000326BE40B543C560D5794E00C4
:1010D000B540C6683543C560491C1029BFD3F0BD73
:1010E000F0B5002300244D07ED0E02FA05F3CE10F3
:1010F00000F1200555F826504E07F70E0F26BE408A
:10110000B543CF1000F1200646F82750CE1000F16D
:10111000200555F8265045EA0304CE1000F12005BD
:1011200045F82640F0BD0AB1018300E041837047D5
:1011300000B597B003200090002001900620029097
:101140000120039000200490059006900220079053
:1011500000200890099020200A9000200B900C900D
:101160000D900E904FF480500F9000201090119031
:10117000129013901490CDF854D0CDF858D007A801
:10118000FFF7BEFE01210220FFF7A0FE17B000BD51
:101190001CB501214FF4EC7000F0EAFA0121084679
:1011A00000F0F6FA0C2200217248FFF799FF0C229A
:1011B00001217048FFF794FF0C2204216D48FFF7CE
:1011C0008FFF0C2205216B48FFF78AFF0C220821B4
:1011D0006848FFF785FF0C2209216648FFF780FF6A
:1011E0000C220A216348FFF77BFF0C220E21614885
:1011F000FFF776FF0C220F215E48FFF771FF0220F8
:101200008DF8040003208DF8050000208DF80600FD
:101210008DF807004CF23370009069465548FFF78F
:1012200017FF0C2207215448FFF75AFF0C22082110
:101230005148FFF755FF0C2209214F48FFF750FF97
:101240000C220A214C48FFF74BFF0C220B214A4885
:10125000FFF746FF0C2211464748FFF741FF0C22DB
:101260000D214548FFF73CFF0C220E214248FFF7B5
:1012700037FF0C220F214048FFF732FF4FF68070F6
:10128000009069463C48FFF7E3FE0C2200213B48F2
:10129000FFF726FF0C2201213848FFF721FF0C221F
:1012A00009213648FFF71CFF40F2032000906946F1
:1012B0003248FFF7CDFE0C2208213148FFF710FF1E
:1012C0000C2209212E48FFF70BFF0C220A212C4883
:1012D000FFF706FF0C220B212948FFF701FF0C2224
:1012E00011462748FFF7FCFE0C220D212448FFF78A
:1012F000F7FE0C220E212248FFF7F2FE0C220F21EE
:101300001F48FFF7EDFE4FF47F40009069461C48F0
:10131000FFF79EFE0C2200211A48FFF7E1FE0C2287
:1013200001211848FFF7DCFE0C2202211548FFF7C7
:10133000D7FE0C2203211348FFF7D2FE0C22062110
:101340001048FFF7CDFE0C2207210E48FFF7C8FE1C
:101350000C2209210B48FFF7C3FE0C220A21094881
:10136000FFF7BEFE40F2CF60009069460548FFF7E8
:101370006FFE1CBD000C024000100240001802402D
:10138000001C02400020024029B9084A126882432A
:10139000064B1A6004E0054A12680243034B1A60C8
:1013A000024A12684FF0C8431A60704724000020B8
:1013B00009A100200BE00A5C124B9A8000BF114A81
:1013C000128802F04002002AF9D0421CD0B22A282A
:1013D000F1D300BFFEE700000D0A456E7465722070
:1013E000486172644661756C745F48616E646C65D7
:1013F000722C2053797374656D2048616C742E0DC6
:101400000A0000000010014000B587B00121084625
:1014100000F0AEF90121102000F0DAF907220921CD
:10142000AA48FFF75DFE07220A21A848FFF758FEE9
:1014300000208DF81A0001208DF81B0002208DF885
:1014400018000002059002208DF8190005A99F4898
:10145000FFF7FEFD02208DF818004002059005A957
:101460009A48FFF7F5FD4FF4E13001900020ADF808
:101470000800ADF80A00ADF80C00ADF810000C2023
:10148000ADF80E0001A9924800F0B2FE012240F230
:1014900025518F4800F087FE01218D4800F04DFE58
:1014A00040218B4800F040FE0121084600F060F921
:1014B0000121480400F07CF9072203218348FFF74B
:1014C0000FFE00208DF81A0001208DF81B0002206D
:1014D0008DF818008DF818000820059002208DF86E
:1014E000190005A97948FFF7B3FD4FF41650019094
:1014F0000020ADF80800ADF80A00ADF80C00ADF81A
:1015000010000420ADF80E0001A9724800F070FE32
:10151000012240F225516F4800F045FE01216D483F
:1015200000F00BFE40216B4800F0FEFD012102207F
:1015300000F01EF901208DF8180000208DF81A0027
:101540008DF81B0003208DF819000420059005A9D3
:101550006148FFF77DFD0121022000F009F901211A
:10156000880400F025F907220A215B48FFF7B8FD3F
:1015700007220B215848FFF7B3FD00208DF81A0011
:1015800001208DF81B0002208DF818004002059004
:1015900002208DF8190005A94F48FFF759FD0220D8
:1015A0008DF818008002059005A94B48FFF750FD03
:1015B0004FF4165001900020ADF80800ADF80A0075
:1015C000ADF80C00ADF810000C20ADF80E0001A92C
:1015D000424800F00DFE012240F225513F4800F044
:1015E000E2FD01213D4800F0A8FD40213B4800F00C
:1015F0009BFD0121442000F0BBF80121202000F0D8
:10160000E7F808220E213648FFF76AFD0822072175
:101610003448FFF765FD082211463148FFF760FDA9
:1016200008220F212E48FFF75BFD00208DF81A00DD
:1016300001208DF81B0002208DF818004003059052
:1016400002208DF8190005A92548FFF701FD0220A9
:101650008DF818008020059005A92248FFF7F8FCB6
:1016600002208DF81800C001059005A91C48FFF75D
:10167000EFFC02208DF818008003059005A918489A
:10168000FFF7E6FC4FF4E13001900020ADF80800D0
:10169000ADF80A00ADF80C00ADF810000C20ADF864
:1016A0000E0001A9104800F0A3FD012240F22551CF
:1016B0000D4800F078FD01210B4800F03EFD40216F
:1016C000094800F031FD07B000BD000000000240F5
:1016D0000010014000440040000402400048004067
:1016E00000180240000802400014014000BFFEE75D
:1016F0007047000070B5002100230F22C4781CB38E
:10170000174C246804F4E064C4F5E064C4F30721D2
:10171000C1F10404E3B20A4144789C40E1B2847808
:10172000144021430C07210E0E4C057861550478B6
:1017300004F01F050124AC4005786D11AD0005F1E2
:10174000E025C5F8004109E0047804F01F050124F4
:10175000AC40054D0678761145F8264070BD000076
:101760000CED00E000E400E080E100E070470000E4
:1017700029B1064A12680243044B1A6004E0034A86
:1017800012688243014B1A607047000030380240F3
:1017900029B1064A12680243044B1A6004E0034A66
:1017A00012688243014B1A607047000038380240CB
:1017B00029B1064A12680243044B1A6004E0034A46
:1017C00012688243014B1A607047000040380240A3
:1017D00029B1064A12680243044B1A6004E0034A26
:1017E00012688243014B1A6070470000443802407F
:1017F000F0B5002100220024022500260223324FEA
:101800003F6807F00C0121B1042905D0082937D120
:1018100005E02E4F076036E02D4F076033E02A4F7A
:101820003F1F3F68C7F38056274F3F1F3F6807F0B1
:101830003F036EB1264FB7FBF3F7DFF88CC0ACF176
:10184000040CDCF800C0CCF3881C07FB0CF40CE0A3
:101850001E4FB7FBF3F7DFF870C0ACF1040CDCF8F7
:1018600000C0CCF3881C07FB0CF4174F3F1F3F68E8
:10187000C7F301477F1C7D00B4FBF5F7076002E06A
:10188000124F076000BF00BF0F4F3F6807F0F00125
:101890000909104F7A5C0768D74047600A4F3F68D4
:1018A00007F4E051890A0B4F7A5C4768D74087609C
:1018B000054F3F6807F46041490B064F7A5C476863
:1018C000D740C760F0BD0000083802400024F40093
:1018D00000127A00280000201CB501210220FFF729
:1018E00047FF01208DF8040000208DF806008DF8D8
:1018F000070003208DF80500042000906946024887
:10190000FFF7A6FB1CBD000000040240704700006A
:10191000042001490880704718040240042001494E
:10192000088070471A0402407047000030B500225A
:101930008B071C0F0F2303FA04F20B4B8C1053F888
:1019400024309343084C8D1044F8253023468C10E6
:1019500053F824308C07240F00FA04F42343024C7C
:101960008D1044F8253030BD083801400CB50020FA
:10197000019000904148006840F480303F49086081
:1019800000BF3E48006800F4003000900198401C01
:101990000190009818B90198B0F5A04FF1D13748DF
:1019A000006800F4003010B10120009001E0002038
:1019B00000900098012860D130484030006840F025
:1019C00080502E49403108602D48006840F4404066
:1019D0002B49086029480830006828490831086008
:1019E0000846006840F4004008600846006840F47B
:1019F000A05008602348091F0860081F006840F0D5
:101A00008070091F086000BF1C48006800F000706B
:101A10000028F9D01A48006840F48030184908605E
:101A200000BF1748406800F480300028F9D01448FF
:101A3000006840F400301249086000BF1048406858
:101A400000F400300028F9D040F205700E4908601B
:101A50000A480830006820F003000849083108608F
:101A60000846006840F00200086000BF03480830E4
:101A7000006800F00C000828F8D10CBD00380240C6
:101A80000070004008544007003C024010B500F0D0
:101A900001F810BD10B51B48006840B11948006836
:101AA000401E1849086010B9012017490870002429
:101AB00008E004EB4401154A02EB810001F020FD2F
:101AC000601CC4B2042CF4DB11480068401C1049AF
:101AD0000860084600686FF00041884202D100208B
:101AE0000B49086001F02FFC0A480078401CC0B286
:101AF000084908700A2803DB0020087001F022FC66
:101B000010BD00000400002008000020D8000020C4
:101B10000C0000202000002070B5002000220223CD
:101B200000240221274D2D6805F00C0020B1042867
:101B300006D0082834D107E0234D244E356033E029
:101B4000234D224E35602FE01E4D2D1F2D68C5F30D
:101B500080541C4D2D1F2D6805F03F0154B11C4DC4
:101B6000B5FBF1F5174E361F3668C6F3881605FB30
:101B700006F209E0144DB5FBF1F5124E361F36683A
:101B8000C6F3881605FB06F20E4D2D1F2D68C5F312
:101B900001456D1C6B00B2FBF3F50C4E356003E0A4
:101BA000094D0A4E356000BF00BF064D2D68C5F3D4
:101BB0000315084E705D054D2D68C540034E356018
:101BC00070BD0000083802400024F40038000020F6
:101BD00000127A003C00002010B51548006840F45F
:101BE0007000134908601348006840F00100114973
:101BF000086000200F49083108600E4800680E494F
:101C000008400C4908600D48091D0860081F00685D
:101C100020F48020091F0860002006490C3108606C
:101C2000FFF7A4FE4FF0006001498039086010BD45
:101C300088ED00E000380240FFFFF6FE103000247F
:101C400010B50221480700F073F858B10221480787
:101C500000F050F800220221480700F07AF81B48F3
:101C6000006880470421080700F062F858B1042199
:101C7000080700F03FF800220421080700F069F887
:101C80001348006880470821C80600F051F858B191
:101C90000821C80600F02EF800220821C80600F02E
:101CA00058F80C48006880471021880600F040F87A
:101CB00058B11021880600F01DF800221021880676
:101CC00000F047F804480068804710BD100000206D
:101CD00014000020180000201C00002021B1028800
:101CE00042F08002028004E002884FF67F731A40BF
:101CF00002807047CA430282704721B1028842F0D5
:101D00000102028004E002884FF6FE731A4002804E
:101D1000704731B1B0F8442042F40042A0F84420AA
:101D200005E0B0F84420C2F30E02A0F8442070474A
:101D300030B50246002000230024158A05EA01037D
:101D4000958905EA010413B10CB1012000E00020DF
:101D500030BD1AB183890B43838102E083898B43B1
:101D60008381704770B5002400220023058C4FF654
:101D7000FE7635400584028C8388048B4FF68F7580
:101D80002C40B51E2C400D882C43751E2A408D8991
:101D90002A434D882A43104DA84202D00F4DA84235
:101DA00013D14FF6F7752A40CD892A434FF6FB75BC
:101DB0002A408D882A434FF6FF652B404FF6FF558A
:101DC0002B400D8A2B434D8A2B43838004838D68DF
:101DD0004563028470BD0000000001400004014022
:101DE0000A460021018B4FF6F77319401143018316
:101DF0007047000070B5002400220023058C4FF6C8
:101E0000EF7635400584028C8388048B48F6FF7595
:101E10002C404FF6FF452C400D884FF6FF7606EA22
:101E200005252C434FF6DF752A408D8906EA0515F6
:101E30002A434D8806EA05152A43154DA84202D0CB
:101E4000144DA8421DD14FF67F752A40CD894FF61B
:101E5000FF7606EA05152A434FF6BF752A408D889E
:101E600006EA05152A434FF6FF352B404FF2FF7562
:101E70002B400D8A06EA85052B434D8A06EA850527
:101E80002B43838004838D688563028470BD0000CA
:101E900000000140000401400A460021018B4FF27E
:101EA000FF7319404FF6FF7303EA022319430183BE
:101EB0007047000070B5002400220023058C4FF607
:101EC000FF6635400584028C8388848B4FF68F75BE
:101ED0002C404FF6FC752C400D882C434FF6FF55D7
:101EE0002A408D894FF6FF7606EA05252A434D885C
:101EF00006EA05252A43154DA84202D0144DA842F2
:101F00001DD14FF2FF752A40CD894FF6FF7606EAC4
:101F100005252A434FF6FF352A408D8806EA052518
:101F20002A434EF6FF752B404DF6FF752B400D8A68
:101F300006EA05152B434D8A06EA05152B438380D7
:101F400084838D68C563028470BD00000000014079
:101F5000000401400A460021818B4FF6F7731940B7
:101F6000114381837047000070B5002200230024D4
:101F7000058C4EF6FF7635400584038C8488828B71
:101F800048F6FF752A404FF6FF452A400D884FF668
:101F9000FF7606EA05252A434DF6FF752B408D890D
:101FA00006EA05352B434D8806EA05352B430A4DD5
:101FB000A84202D0094DA84208D14BF6FF752C402B
:101FC0000D8A4FF6FF7606EA85152C4384808283BE
:101FD0008D680564038470BD000001400004014069
:101FE0000A460021818B4FF2FF7319404FF6FF73B1
:101FF00003EA02231943818370470000002202880C
:10200000184B98420ED0184B98420BD0B0F1804F2D
:1020100008D0164B984205D0154B984202D0154B6C
:10202000984204D14FF68F731A404B881A43124BD3
:10203000984207D0114B984204D04FF6FF431A4004
:102040000B891A4302804B68C3620B880385054BDA
:10205000984202D0044B984201D18B7A0386012327
:1020600083827047000001400004014000040040EA
:1020700000080040000C0040001000400014004028
:1020800010B5024800F027F910BD0000080100203B
:1020900010B5024800F01FF910BD00003009002003
:1020A00010B5024800F017F910BD000058110020CB
:1020B00010B540F22551174800F04BF838B31548D9
:1020C00000F000F91449154A127888541348007832
:1020D00020B908460078552800D010BD0F48007878
:1020E000401C0E490870084600780B280FD10C4898
:1020F00009490A6802604A6842600A890281897A4D
:10210000817200200549087001200649087000BF4F
:10211000E3E7000000140140BE210020220000205F
:10212000A82100202300002001F40072B2F5007FF6
:1021300000D100BFCA430280704721B1828942F4B6
:102140000052828104E082894DF6FF731A40828139
:10215000704770B50246002400230025002040F699
:102160006A16B14200D100BFC1F3421501F01F034E
:10217000012606FA03F3012D02D19689334006E0C9
:10218000022D02D1168A334001E0968A33400C12A8
:10219000012606FA04F41688344013B10CB101206C
:1021A00000E0002070BDF0B50346002400260025A5
:1021B000002040F66A17B94200D100BF1846C1F3AB
:1021C000421401F01F06012707FA06F5012C01D180
:1021D0000C3004E0022C01D1103000E014301AB1B0
:1021E00007682F43076002E00768AF430760F0BD50
:1021F0002DE9FF4705460E460024A14600BFA04634
:10220000B08900B100BF2C8A24F44054F088044304
:102210002C82AC8941F20C608443B0883189084338
:10222000718908430443AC81AC8A24F44074B089BA
:102230000443AC826846FFF7DBFA2048854202D0AF
:102240001F48854202D1DDF80C9001E0DDF80890CE
:10225000A88900F4004040B109EBC90000EB091067
:1022600031684900B0FBF1F707E009EBC90000EB6A
:10227000091031688900B0FBF1F76420B7FBF0F07A
:1022800004012009642101FB1078A88900F40040B2
:1022900040B1322000EBC800B0FBF1F000F00700C5
:1022A000044308E0322000EB08106421B0FBF1F099
:1022B00000F00F0004432C81BDE8FF8700100140AF
:1022C0000014014001468888C0F308007047C1F33C
:1022D00008028280704770B5044640F2255120689C
:1022E000FFF737FFE0B12068FFF7ECFFC5B2E18AE6
:1022F000A0684554E08A401C80B2E082E1898842AF
:1023000001DB0020E082608BE189884202DA608B89
:10231000401C6083606A10B12846616A884700BF2C
:1023200040F227712068FFF714FF08B3A08A60B954
:10233000002240F227712068FFF735FF012240F2AA
:1023400026612068FFF72FFF37E0638A6268D15C5F
:102350002068FFF7BCFF608A401C80B26082A189C0
:10236000884201DB00206082A08A401EA08224E017
:1023700040F226612068FFF7ECFEF0B1A08A50B968
:10238000002240F226612068FFF70DFF206AA0B10D
:10239000206A804711E0638A6268D15C2068FFF799
:1023A00096FF608A401C80B26082A189884201DB6E
:1023B00000206082A08A401EA08270BDF8B504464D
:1023C0000E461746002529E00EE0012000F0D2F865
:1023D000A08A0090002000F0CDF8A089BDF8001080
:1023E000884200DD01E000BFEFE700BF705D228A98
:1023F00061688854012000F0BDF8208A401C80B23A
:102400002082A189884201DB00202082A08A401C12
:10241000A082002000F0AEF8681C85B2BD42D3DB7C
:10242000012240F227712068FFF7BDFEF8BD0000D1
:102430002B482C4908602C4848602C4888604FF491
:1024400080608881C881002008824882C882088311
:1024500048838882C8610862486225482549086027
:10246000254848602548886001208881C002C881CD
:10247000002008824882C882088348838882C86115
:10248000086248621E481F4908601F4848601F488C
:1024900088604FF480608881C8810020088248826B
:1024A000C8820883488388821948C861194808622D
:1024B0001948486219481A4908601A4848601A4879
:1024C00088604FF480608881C8810020088248823B
:1024D000C882088348838882C8610862486270475E
:1024E00000100140080100203001002030050020CC
:1024F000004400403009002021000020580900203D
:102500000048004058110020801100208015002054
:10251000111900081D1900080D19000800140140C8
:1025200080190020A8190020A81D002000BFFEE788
:102530000FB4054B10B503A9044A029800F0D0F877
:1025400010BC5DF814FB0000F73500084C000020BB
:1025500002E008C8121F08C1002AFAD1704770476C
:10256000002001E001C1121F002AFBD1704780F357
:102570001088704780F31088704700002DE9FF5FD6
:10258000DDE90220010DDDF838B0024318D044F631
:102590001050A1F2FF3141430D140F98012820D0B3
:1025A000A5EB0B00401C5FEA000A4FF00004474E09
:1025B000DFF81C91A046504616D5CAF1000728E066
:1025C0000F98012443A2012808D0002100980F9BF6
:1025D000C0E90021C0E90243BDE8FF9F6FEA0B019B
:1025E000F4E7CBF10000DEE7074612E0F80707D07A
:1025F0002246334640464946FDF79BFE80468946C3
:102600002246334610461946FDF793FE04460E4611
:102610007F10002FEAD1DDE90201BAF1000F424636
:102620004B4602DAFDF785FE01E0FDF7F4FE0446B5
:102630000E460022284BFEF7AFF803D84FF0FF30CC
:10264000014607E00022254B20463146FDF7CAFD32
:10265000FEF78AF8102409E0002C0ADB0A22002386
:10266000FDF79EFF019B30321A55641E50EA0102AD
:10267000F2D1641C019AC4F1110314440F9A012A87
:1026800003D0012208430DD10AE0084304D0002002
:102690004FF0110B0F9080E7A3EB0B056D1E0DE0C3
:1026A0005B4504DD4FF0000205F1010504E003DAAB
:1026B0004FF00002A5F10105002AECD000980F9917
:1026C000C0E90231C0E9004586E70000000024406F
:1026D0000000F03F300000000000F0430000E03F49
:1026E0002DE9FF4F95B09B468946064600250FE22F
:1026F000252877D100242746F84A0121059400E0D7
:10270000044316F8013F203B01FA03F01042F7D1D1
:1027100030782A2811D06FF02F033078A0F13002E2
:10272000092A16D8059A44F0020402EB820203EB50
:1027300042021044761C0590EFE759F8042B0592ED
:10274000002A03DA504244F40054059044F0020495
:10275000761C30782E2816D116F8010F44F00404A8
:102760002A280DD06FF02F023078A0F13003092B0A
:1027700009D807EB870302EB4303C718761CF3E77E
:1027800059F8047B761C30786C280FD006DC4C2876
:1027900017D068280DD06A2814D104E0742810D00E
:1027A0007A280FD10DE044F400140AE044F48014B8
:1027B00001E044F440147278824202D104F580149E
:1027C000761C761C307866280BD013DC582877D01E
:1027D00009DC002875D04528F6D04628F4D04728D3
:1027E0001AD19DE118E0632835D0642879D0652896
:1027F00012D195E1702873D008DC6728F1D06928E0
:102800006FD06E280DD06F2806D1B5E073282CD07C
:10281000752875D0782874D05A46179990476D1C42
:1028200075E1C4F30250022809D003280DD0D9F86D
:10283000001004280DD00D6009F1040967E1D9F8F2
:102840000010EA17C1E90052F6E7D9F800100D8030
:10285000F2E70D70F0E719F8041B8DF80010002066
:102860008DF80100EA46012003E059F804AB4FF06F
:10287000FF3061074FF0000102D40DE008F10101C3
:102880008846B9420FDA8045F8DB1AF808100029AB
:10289000F4D108E008F1010188468142FADB1AF818
:1028A00008100029F6D105985B46A0EB08072146E1
:1028B0003846179A00F094FA284400EB080507E020
:1028C0004DE029E10DE01AF8010B5A46179990479F
:1028D000B8F10108F7D25B4621463846179A13E152
:1028E00042E00A220092C4F302524FF0000A022A88
:1028F00008D059F804CB032A4FEAEC710AD00DE056
:1029000029E02AE009F1070121F00702F2E802C1FB
:10291000914609E00FFA8CFC4FEAEC71042A03D1CE
:102920004FFA8CFC4FEAEC71002907DA0A460021C5
:10293000DCF1000C61EB02012D2202E0220504D53E
:102940002B228DF80420012203E0E20701D020228F
:10295000F7E7904659E00A2102E010220DE010212D
:102960004FF0000A00910BE010224FF0000A44F0F3
:1029700004040827009203E008224FF0000A0092A6
:10298000C4F30252022A05D059F804CB0021032ACD
:1029900008D009E009F1070121F00702F2E802C1BD
:1029A000914605E01FFA8CFC042A01D10CF0FF0CC3
:1029B0004FF00008220728D5702806D0009B83F02E
:1029C000100353EA0A0305D00EE040228DF80420DC
:1029D000012208E05CEA010206D030228DF80420D2
:1029E0008DF8050002229046009B83F0080353EA0D
:1029F0000A030AD15CEA010201D1620705D530223F
:102A00008DF804204FF001087F1E582804D034A010
:102A100003900EA802900DE036A0F9E753466046F9
:102A2000009AFDF7BDFD84460398825C0298401E23
:102A3000029002705CEA0100F0D1029806A9081A1F
:102A400000F1200A600702D524F4803400E0012759
:102A5000574502DDA7EB0A0000E0002000EB0A0169
:102A6000009005984144401A0590E00306D45B4667
:102A70002146179A059800F0B3F90544002706E0AF
:102A800001A85A46C05D179990476D1C7F1C4745A9
:102A9000F6DBE0030CD55B462146179A059800F05B
:102AA0009FF9054404E030205A46179990476D1C61
:102AB0000099481E00900029F5DC08E00298029970
:102AC0005A460078491C0291179990476D1CBAF13B
:102AD0000001AAF1010AF1DC65E10000092801000A
:102AE0003031323334353637383961626364656684
:102AF0000000000030313233343536373839414246
:102B0000434445460000000000F058F90544761C97
:102B1000307800287FF4ECAD19B02846BDE8F08F7E
:102B2000620700D4062709F1070222F0070CFCE82F
:102B30000223E14603F000485FEA080C02D00FF2DE
:102B4000702C0DE05FEA045C02D50FF2682C07E000
:102B50005FEAC47C02D00FF2602C01E0AFF2700C8F
:102B60004FF0FF3823F00043CDF850C065280CD05B
:102B700006DC452809D046281DD047283DD13DE038
:102B8000662818D067287ED138E00021112F01DB9C
:102B9000112000E0781CCDE9000106A90EA8FFF77E
:102BA000EDFCDDE90F010E9A03910021009207F17F
:102BB000010A04914DE04FF000400097CDE901106B
:102BC00006A90EA8FFF7DAFCDDE90F0203920E9BBF
:102BD00011990022DDF80CA00093049211B9791C20
:102BE00000EB010AB7EB0A0004D4C0F1FF3007F193
:102BF000010A0490AAEB0700019044E0012F00DADB
:102C000001270021112F01DD112000E03846CDE918
:102C1000000106A90EA8FFF7B1FCDDE90F010E9A2D
:102C20000391002104910092BA4621070CD4039924
:102C3000514500DA8A46BAF1010F05DD009AAAF182
:102C40000101515C302908D0B84202DA10F1040FBA
:102C500006DA0121CDE9011015E0AAF10101E9E749
:102C6000002805DC049901440491AAEB000102E06C
:102C7000411C514500DD8A460499401A401C0190D0
:102C80004FF000400290200704D40198504501DB2A
:102C9000CDF8048000208DF84F0002980DF14F0709
:102CA000B0F1004F25D02B200E9002984FF0020873
:102CB00000280CDA404202902D200E9007E00A21F5
:102CC0000298FDF757FC3031029007F8011DB8F16A
:102CD0000001A8F10108F2DC02980028EFD1791E6A
:102CE0000E980870307800F0200040F0450007F89A
:102CF000020D12A8C01B00F107081498007800B15B
:102D0000012000EB0A01019801EBE07105984144B4
:102D1000401A401E0590E00306D45B462146179AF0
:102D2000059800F05DF805441498007818B15A46EB
:102D3000179990476D1CE00324D55B462146179AEE
:102D4000059800F04DF805441CE00498002807DBC6
:102D5000DDE90301884203DD0098405C179901E03A
:102D6000179930205A469047049805F10105401CF8
:102D700004900198401E019004D12E205A461799C4
:102D800090476D1CBAF10001AAF1010ADDDC05E0F3
:102D900017F8010B5A46179990476D1CB8F10001BE
:102DA000A8F10108F4DC5B462146179A0598ABE6CA
:102DB0002D0000002B000000200000002DE9F04154
:102DC000044600251E461746880404D405E039460B
:102DD0002020B0476D1C641EF9D52846BDE8F0815F
:102DE0002DE9F041044600251E469046C80301D552
:102DF000302700E02027880404D505E04146384606
:102E0000B0476D1C641EF9D52846BDE8F08100006E
:102E10000146042901DB0020704701EB4100084A0C
:102E200002EB80004078012808D1002001EB41022C
:102E3000034B03EB820250700120EDE70020EBE72B
:102E4000D80000207CB505460C46284600F014F951
:102E500006460121FEF78CFC009401208DF8040049
:102E600002208DF8050000208DF806008DF807007F
:102E700069462846FEF7ECF87CBD00002DE9FC47CA
:102E800006460D4614469946304600F0F5F80746CA
:102E90000121FEF76DFC1F4884420BD01E4884427E
:102EA00008D01E48844205D01D48844202D01D48E7
:102EB000844207D1204600F021F907460121FEF7A0
:102EC00087FC06E0204600F019F907460121FEF7CD
:102ED0006FFC009502208DF8040003208DF805009A
:102EE00000208DF8060001208DF807006946304665
:102EF000FEF7AEF8204600F017F80746284600F027
:102F000071F880463A4641463046FEF7E9F8BDE89A
:102F1000FC87000000000140000401400040014027
:102F2000004401400048014001460020224A9142ED
:102F300001D101203FE0214A914201D103203AE032
:102F40001F4A914201D1032035E01E4A914201D12E
:102F5000032030E01C4A914201D103202BE0B1F163
:102F6000804F01D1012026E0184A914201D1022070
:102F700021E0174A914201D102201CE0154A9142FA
:102F800001D1022017E00D4A914201D1032012E045
:102F90000B4A914201D103200DE00F4A914201D129
:102FA000092008E00D4A914201D1092003E00C4AB2
:102FB000914200D109207047000001400004014007
:102FC000004001400044014000480140000400402E
:102FD00000080040000C004000180040001C0040A9
:102FE0000020004001460020012900D142E00229D2
:102FF00001D101203EE0042901D102203AE0082954
:1030000001D1032036E0102901D1042032E020292B
:1030100001D105202EE0402901D106202AE0802997
:1030200001D1072026E0B1F5807F01D1082021E001
:10303000B1F5007F01D109201CE0B1F5806F01D10D
:103040000A2017E0B1F5006F01D10B2012E0B1F5B5
:10305000805F01D10C200DE0B1F5005F01D10D20A2
:1030600008E0B1F5804F01D10E2003E0B1F5004F2B
:1030700000D10F207047000001460020164A9142FF
:1030800001D1012026E0154A914201D1022021E020
:10309000134A914201D104201CE0124A914201D10D
:1030A000082017E0104A914201D1102012E00F4A87
:1030B000914201D120200DE00D4A914201D14020E2
:1030C00008E00C4A914201D1802003E00A4A914273
:1030D00000D1881570470000000002400004024043
:1030E00000080240000C02400010024000140240A0
:1030F00000180240001C024000200240014600204F
:10310000244A914201D1012042E0234A914201D157
:1031100002203DE0214A914202D14FF4803037E055
:103120001F4A914202D14FF4003031E01D4A9142D2
:1031300002D14FF480202BE0B1F1804F01D101206A
:1031400026E0194A914201D1022021E0174A91421A
:1031500001D104201CE0164A914201D1082017E059
:10316000144A914201D1102012E0134A914201D138
:1031700020200DE0114A914201D1402008E0104A80
:10318000914201D1802003E00E4A914200D188157E
:103190007047000000000140000401400040014071
:1031A0000044014000480140000400400008004085
:1031B000000C0040001000400014004000180040C7
:1031C000001C00400020004010B5FEF7A5FC00F0F8
:1031D00019F800F0ADF800F05BF810BD10B5FDF780
:1031E00011FBFDF7EBFB0020FDF7DEFC0020FDF7F7
:1031F000C5FCFDF7A7FC4FF480700149088010BDA5
:103200001814024010B5FDF7C3FFFDF791FF40F61B
:10321000147004490860084600684FF0C84108600F
:1032200010BD0000240000207FB501210846FEF7F4
:10323000BFFA1548006846081448B6FBF0F085B29E
:103240004FF0FF340294ADF804500020ADF80C00AC
:10325000ADF8060001A94FF08040FEF7CFFE012136
:103260008807FEF74AFD1C208DF8000004208DF829
:10327000010000208DF8020001208DF8030068464F
:10328000FEF738FA7FBD00003800002040420F00F2
:1032900070B5002416E0002004EB4401204A02EB44
:1032A0008101486004EB440102EB8101886004EB7A
:1032B000440102EB8101487004EB440102F8210053
:1032C000601CC4B2042CE6DBFEF726FC154800683F
:1032D0004FF47A72B0FBF2F1481EB0F1807F00D358
:1032E0001BE0481E4FF0E022506150170F220028CB
:1032F00007DA13071E0E0C4B00F00F052D1F5E554D
:1033000003E013071D0E094B1D5400BF00204FF0B2
:10331000E02290610720106100BFFFF785FF70BDBC
:10332000D80000203800002018ED00E000E400E0A4
:1033300010B5FFF77DF8FEF767F8FEF7CDFAFDF759
:1033400029FD10BD704770472DE9FF4F89B08346B6
:1033500014461D46DDE9166ABAF1000F0FD10021AF
:103360002046FEF7CAFC58460A99FFF76BFD00227B
:1033700058460A99FDF7D7FE0DB0BDE8F08F42F22E
:10338000107082450DD100212046FEF7B6FC58464C
:103390000A99FFF757FD012258460A99FDF7C3FE27
:1033A000EAE72B46224658460A99FFF767FD4E4842
:1033B00084420BD04D48844208D04D48844205D009
:1033C0004C48844202D04C48844203D14B48D0F848
:1033D000008003E0494800684FEA5008642E0AD292
:1033E00042F20F7942F21070B8FBF0F0B0FBF6F049
:1033F000401E87B213E040F6B830864209D24FF043
:1034000063096420B8FBF0F0B0FBF6F0401E87B211
:1034100005E04FF00009B8FBF6F0401E87B20797B1
:10342000ADF818900020ADF82000ADF81A008DF826
:10343000220006A92046FEF7E1FD6020ADF8040059
:103440000120ADF806000AFB07F042F21071B0FB54
:10345000F1F003900020ADF81000ADF80800ADF8D1
:103460001200ADF81400ADF81600012D08D101A925
:103470002046FEF777FC08212046FEF7B1FC1FE04E
:10348000022D08D101A92046FEF7B4FC08212046F0
:10349000FEF702FD14E0032D08D101A92046FEF736
:1034A00009FD08212046FEF755FD09E0042D07D14E
:1034B00001A92046FEF758FD08212046FEF790FDA1
:1034C00001212046FEF70AFC01212046FEF715FCEB
:1034D0000548844202D00548844203D10121204698
:1034E000FEF717FC00BF47E7000001400004014061
:1034F00000400140004401400048014038000020E5
:10350000416851B14168491E416031B901214170A2
:103510000178012901D181684160704770B5044686
:103520000D46042C06DB124A12A11AA0FFF700F880
:1035300000BFFEE70120FFF71AF804EB44001D4925
:1035400001EB8000456004EB440001EB80008560E6
:10355000002004EB4401174A02EB8101487001206E
:1035600004EB440102F821000020FFF700F870BDD1
:10357000A73B00082E2E5C2E2E5C557365725C6294
:1035800073705C7372635C6273705F74696D657293
:103590002E6300004572726F723A2066696C652076
:1035A00025732C2066756E6374696F6E20257328F1
:1035B000290D0A00D80000202DE9F04105460E46ED
:1035C00017462846FDF7C4FB04460CB9BDE8F08158
:1035D000E06908B1E06980473A4631462046FEF787
:1035E000EDFE00BFF2E713B50446012201A9204613
:1035F000FFF7E2FF1CBD70B504460D46E1B20020A6
:10360000FFF7F1FF204670BD2DED0C8B94B0FFF756
:10361000DBFD0024FFF7E2FD4FF47A70FDF74CFB71
:103620000620FDF7C1FA0020FDF7A8FAFDF738FBE8
:103630004FF4FA710020FFF771FFA8E2FDF71EFAC0
:10364000FE49B1F9001001F12600FCF753FF41ECEF
:10365000180B9FEDFB0B53EC102BFCF76AFEFA4A9C
:1036600003C2F649B1F9021001F1BF00FCF742FFB5
:1036700041EC180B9FEDF20B53EC102BFCF759FEAD
:10368000F14AC2E90201ED49B1F90410A1F15F006C
:10369000FCF730FF41EC180B9FEDEC0B53EC102BBB
:1036A000FCF747FEE84AC2E90401EA4890ED020A45
:1036B00010EE101A0846FCF72EFF41EC180BE548F7
:1036C00090ED010A10EE101A0846FCF724FF41ECB9
:1036D000190BE04890ED000A10EE101A0846FCF7AE
:1036E0001AFF41EC1A0BDC4890ED020A10EE101A9A
:1036F0000846FCF710FF41EC1B0BD74890ED010A80
:1037000010EE101A0846FCF706FF41EC1C0BD248DD
:1037100090ED000A10EE101A0846FCF7FCFE41EC92
:103720001D0B8DED0E8B8DED0C9B8DED0AAB8DED94
:1037300008BB8DED06CB8DED04DBC34890ED040B8B
:103740008DED020B90ED020B8DED000B90ED001B4B
:10375000B0EE410AF0EE610A53EC102BBFA0FEF769
:10376000E7FEC5A0FEF7E4FE3CB90020FFF750FBE2
:1037700018B1FDF7BBF9FDF793FA012C09D101212E
:10378000BEA0FEF7D5FEBFA0FEF7D2FECA48FDF7E9
:1037900093FACA48007800287ED0C9480168119180
:1037A000416812910189ADF84C10807A8DF84E0075
:1037B0000020C2490870C248007855286CD1C04822
:1037C0004078512804D0522867D0532866D1FDE0B4
:1037D0009DF846109DF8472041EA022108B2FCF707
:1037E00089FE41EC1A0B9FEDB70B53EC102BFCF745
:1037F00012FE41EC190B9FEDB50B53EC102BFCF7AF
:1038000098FD41EC180BFCF799FE924908609DF871
:1038100048109DF8492041EA022108B2FCF76AFEEF
:1038200041EC1A0B9FEDA70B53EC102BFCF7F3FDAB
:1038300041EC190B9FEDA50B53EC102BFCF779FD18
:1038400041EC180BFCF77AFE824948609DF84A105B
:103850009DF84B2041EA022108B2FCF74BFE41ECF7
:103860001A0B9FED980B53EC102BFCF7D4FD41EC99
:10387000190B9FED960B53EC102BFCF75AFD41EC06
:10388000180BFCF75BFE734988609DF84C109DF89F
:103890004D2041EA022102E079E11AE075E108B227
:1038A000FCF728FE41EC1A0B9FED8A0B53EC102B12
:1038B000FCF7B1FD41EC190B9FED880B53EC102B7D
:1038C000FCF790FC41EC180BFCF738FE85490860CA
:1038D0005CE19DF846109DF8472041EA022108B2BC
:1038E000FCF708FE41EC1A0B9FED760B53EC102B06
:1038F000FCF791FD41EC190B9FED7B0B53EC102B6A
:10390000FCF717FD41EC180BFCF718FE784908602E
:103910009DF848109DF8492041EA022108B2FCF7C1
:10392000E9FD41EC1A0B9FED670B53EC102BFCF7F4
:1039300072FD41EC190B9FED6C0B53EC102BFCF757
:10394000F8FC41EC180BFCF7F9FD694948609DF85B
:103950004A109DF84B2041EA022108B2FCF7CAFD4B
:1039600041EC1A0B9FED570B53EC102BFCF753FD5A
:1039700041EC190B9FED5C0B53EC102BFCF7D9FCC1
:1039800041EC180BFCF7DAFD594988609DF84C10A2
:103990009DF84D2041EA022108B2FCF7ABFD41EC55
:1039A0001A0B9FED4C0B53EC102BFCF734FD41EC44
:1039B000190B9FED4A0B53EC102BFCF713FC41EC59
:1039C000180BFCF7BBFD47490860DFE09DF8461087
:1039D0009DF8472041EA022108B2FCF78BFD41EC3B
:1039E0001A0B9FED380B53EC102BFCF714FD41EC38
:1039F000190B9FED400B53EC102BFCF79AFC41EC9C
:103A0000180BFCF79BFD144908609DF848109DF8C1
:103A1000492041EA022108B2FCF76CFD41EC1A0B87
:103A20009FED280B53EC102BFCF7F5FC41EC190B28
:103A30009FED300B53EC102B60E000007400002071
:103A40007B14AE47E17AB43F980000207B14AE4768
:103A5000E17AC43F500000206800002025662C2534
:103A6000662C25662C25662C25662C25662C25665D
:103A70002C25662C256600000D0A00001B5B2564C2
:103A800041000000414437363036BDF8C8EB4649A6
:103A9000464FB9A4D7F7C4A3CABD20283230304B53
:103AA000487A2038CDA8B5C0CDACB2BDB2C9BCAF44
:103AB000292E2E2E0D0A0000400D030023000020A9
:103AC000A8210020000000000000E04000000000ED
:103AD0000000304000000000004075400000000081
:103AE00000204240000000200000000000409F40F5
:103AF0005C0000200000000000806640FCF719FC1C
:103B000041EC180BFCF71AFD214948609DF84A105A
:103B10009DF84B2041EA022108B2FCF7EBFC41EC96
:103B20001A0B1FED180B53EC102BFCF774FC41EC37
:103B3000190B1FED100B53EC102BFCF7FAFB41ECAB
:103B4000180BFCF7FBFC124988609DF84C109DF89F
:103B50004D2041EA022108B2FCF7CCFC41EC1A0BE3
:103B60001FED240B53EC102BFCF755FC41EC190B0B
:103B70001FED260B53EC102BFCF734FB41EC180B1C
:103B8000FCF7DCFC0349086000E000BF00BF55E51E
:103B900068000020000000206273705F537461723F
:103BA0007454696D6572006273705F5374617274EE
:103BB0004175746F54696D6572006273705F537400
:103BC0006F7054696D657200E83B000800000020CA
:103BD0005000000050250008383C0008500000202C
:103BE000C8C10000602500080000000000000000BF
:103BF00000000000000000000000000000000000C5
:103C000000000000000000000000000000000000B4
:103C10000000000001020304010203040607080972
:103C20000095BA0A00000000000000000102030431
:083C300006070809000000006E
:04000005080001AD41
:00000001FF
