:020000040800F2
:10000000305A0020C12800086D2500086F2500081F
:100010009D2500089F250008A1250008000000007C
:10002000000000000000000000000000A325000800
:10003000A525000800000000A7250008EF1800080B
:10004000FD280008012900080529000809290008E1
:100050000D29000811290008152900081929000890
:100060001D29000821290008252900082929000840
:100070002D290008312900083529000839290008F0
:100080003D290008412900084529000849290008A0
:100090004D2900085129000855290008A925000804
:1000A000592900085D290008612900086529000810
:1000B0005D190008692900086D29000871290008E8
:1000C00075290008792900087D2900088129000880
:1000D000852900084F08000859080008630800082F
:1000E000892900088D290008912900089529000810
:1000F000992900089D290008A1290008A5290008C0
:10010000A9290008AD290008B1290008B52900086F
:10011000B9290008BD290008C1290008C52900081F
:10012000C9290008CD290008D1290008D5290008CF
:10013000D9290008DD290008E1290008E52900087F
:10014000E9290008ED290008F1290008F52900082F
:10015000F9290008FD290008012A0008052A0008DD
:10016000092A00080D2A0008112A0008152A00088B
:10017000192A00081D2A0008212A0008252A00083B
:10018000292A00082D2A0008312A0008352A0008EB
:10019000392A00083D2A0008412A0008452A00089B
:1001A000492A00084D2A0008512A000880B500F0AD
:1001B00081F800F039F900F058F800F046FA01BD76
:1001C0000100C9B2002902D1DFF8A4061BE0C9B2C0
:1001D000012902D1DFF89C0615E0C9B2022902D13B
:1001E000DFF894060FE0C9B2032901D100200AE02C
:1001F000C9B2042901D1002005E0C9B2052901D105
:10020000002000E000207047F8B504000D00160043
:100210002000C0B2FFF7D4FF0700002F0AD0F86912
:10022000002801D0F8698047320092B229003800D6
:1002300000F031FAF1BD13B50400012201A920003C
:10024000C0B2FFF7E1FF13BD70B504000D00200040
:10025000C0B2FFF7B5FF0600002E01D1002003E079
:100260002900300000F04FFA70BD00B583B00121C5
:10027000022000F0AEFB01208DF8040000208DF874
:10028000060000208DF8070003208DF805000420EB
:10029000009000A9DFF8F00500F0ECFB07BDDFF8E7
:1002A000EC05042101807047DFF8E405042101809A
:1002B00070477047DFF8B805DFF8C0150160DFF858
:1002C000B005DFF8D0154160DFF8A405DFF8C815E8
:1002D0008160DFF89C054FF480618181DFF8900533
:1002E0004FF48061C181DFF8880500210182DFF8C9
:1002F000800500214182DFF878050021C182DFF806
:10030000700500210183DFF8680500214183DFF8D3
:10031000600500218182DFF858050021C161DFF806
:10032000500500210162DFF8480500214162DFF835
:100330004405DFF84C150160DFF83805DFF85C157F
:100340004160DFF83005DFF858158160DFF82405DB
:1003500001218181DFF81C054FF40061C181DFF8C4
:10036000140500210182DFF80C0500214182DFF82D
:1003700004050021C182DFF8FC0400210183DFF8BD
:10038000F40400214183DFF8EC0400218182DFF8CE
:10039000E4040021C161DFF8DC0400210162DFF820
:1003A000D40400214162DFF8D004DFF8D8140160E2
:1003B000DFF8C404DFF8EC144160DFF8BC04DFF8B8
:1003C000E8148160DFF8B0044FF480618181DFF8C8
:1003D000A8044FF48061C181DFF89C0400210182F0
:1003E000DFF8940400214182DFF88C040021C182EF
:1003F000DFF8840400210183DFF87C0400214183BD
:10040000DFF8740400218182DFF86C04DFF89C14AB
:10041000C161DFF86404DFF898140162DFF8580462
:10042000DFF890144162704700B587B001210120C8
:1004300000F0CFFA0121102000F0FAFA072209217A
:10044000DFF8740400F06BFB07220A21DFF8680470
:1004500000F065FB00208DF8060001208DF80700F4
:1004600002208DF804004FF40070009002208DF8F7
:10047000050000A9DFF8400400F0FCFA02208DF826
:1004800004004FF48060009000A9DFF82C0400F015
:10049000F1FA5FF4E13002900020ADF80C0000208A
:1004A000ADF80E000020ADF810000020ADF81400EB
:1004B0000C20ADF8120002A9DFF8C00300F05CFBCD
:1004C000012240F22551DFF8B40300F0E9FB0121DD
:1004D000DFF8A80300F0CEFB4021DFF8A00300F016
:1004E0000AFC0121012000F074FA01215FF40030C0
:1004F00000F08FFA07220321DFF8BC0300F00FFBA6
:1005000000208DF8060001208DF8070002208DF8EC
:10051000040002208DF804000820009002208DF8CD
:10052000050000A9E44800F0A5FA4FF41650029027
:100530000020ADF80C000020ADF80E000020ADF852
:1005400010000020ADF814000420ADF8120002A93C
:10055000CB4800F011FB012240F22551C84800F0C1
:100560009FFB0121C64800F085FB4021C44800F0F4
:10057000C2FB0121022000F02CFA01208DF80400BA
:1005800000208DF8060000208DF8070003208DF86C
:1005900005000420009000A9BB4800F06BFA01217F
:1005A000022000F016FA01215FF4802000F031FAF9
:1005B00007220A21B44800F0B2FA07220B21B24800
:1005C00000F0ADFA00208DF8060001208DF807003C
:1005D00002208DF804004FF48060009002208DF816
:1005E000050000A9A84800F045FA02208DF8040093
:1005F0004FF40060009000A9A34800F03BFA4FF4CC
:10060000165002900020ADF80C000020ADF80E004E
:100610000020ADF810000020ADF814000C20ADF85B
:10062000120002A9974800F0A7FA012240F22551D2
:10063000944800F035FB0121924800F01BFB40215B
:10064000904800F058FB07B000BD80B525208DF81C
:10065000000000208DF8020001208DF8030000A8A2
:1006600000F086FB26208DF8000001208DF80200A6
:1006700001208DF8030000A800F07AFB27208DF8F8
:10068000000002208DF8020001208DF8030000A870
:1006900000F06EFB01BDF8B504000D00160000204F
:1006A0000700BFB2B6B2B74226D2012080F310884D
:1006B000A08AADF80000002080F31088BDF800008B
:1006C000A1898842F1D2208A6168BFB27A5D425422
:1006D000012080F31088208A401C2082A18980B2EA
:1006E000884201D300202082A08A401CA0820020E2
:1006F00080F310887F1CD4E7012240F22771206824
:1007000000F0CEFAF1BD10B40200012080F3108891
:10071000508B0300002080F310889BB2002B01D186
:10072000002016E0108B9468005D0870012080F3B3
:100730001088108B401C1083D48980B2A04201D352
:1007400000201083508B401E5083002080F31088BF
:10075000012010BC704738B5040040F225512068D4
:1007600000F0CFFA00281DD0206800F095FA0500AF
:10077000E08AA1684554E08A401CE082E18980B2A9
:10078000884201D30020E082608BE189884202D256
:10079000608B401C6083606A002803D02800C0B2D0
:1007A000616A884740F22771206800F0AAFA0028A1
:1007B00023D0A08A00280CD1002240F227712068A3
:1007C00000F06EFA012240F22661206800F068FA1B
:1007D0003CE0608A6168415C89B2206800F058FAA8
:1007E000608A401C6082A18980B2884201D30020C7
:1007F0006082A08A401EA08228E040F22661206824
:1008000000F07FFA002821D0A08A00280BD1002216
:1008100040F22661206800F043FA206A002815D0D3
:10082000206A804712E0608A6168415C89B2206872
:1008300000F02EFA608A401C6082A18980B2884252
:1008400001D300206082A08A401EA08231BD80B505
:100850000748FFF780FF01BD80B50648FFF77BFF23
:1008600001BD80B50448FFF776FF01BD0000000020
:1008700084190020AC190020D41900200010014078
:1008800000440040004800400004024018040240B8
:100890001A04024064080020640C00202A1A002078
:1008A0006400002064100020641400209F020008EF
:1008B000A9020008B30200080000024038B5040095
:1008C0000D002100C9B20020FFF7B5FC200032BDA9
:1008D000F0B4002100220023022400250226DFF8C4
:1008E00070713F6817F00C0739000F00002F04D01B
:1008F000042F06D0082F08D03CE0DFF85C710760B9
:100900003BE0DFF85871076037E0DFF848713F6877
:10091000C7F380573D00DFF83C713F6817F03F0791
:100920003E00002D0DD0DFF83471B7FBF6F7DFF88D
:1009300024C1DCF800C0CCF3881C0CFB07F73B009B
:100940000CE0DFF81471B7FBF6F7DFF808C1DCF84C
:1009500000C0CCF3881C0CFB07F73B00DFF8F470F9
:100960003F68C7F301477F1C7F003C00B3FBF4F7EF
:10097000076002E0DFF8E0700760DFF8D4703F68DE
:1009800017F0F00739000909DFF8D470CF5D3A009D
:100990000768D7404760DFF8B8703F6817F4E05742
:1009A0003900890ADFF8B870CF5D3A004768D74050
:1009B0008760DFF89C703F6817F460473900490B87
:1009C000DFF89C70CF5D3A004768D740C760F0BC45
:1009D0007047C9B2002907D0DFF8882012680243A7
:1009E000DFF880301A6004E01E4A126882431D4B13
:1009F0001A607047C9B2002905D01B4A1268024329
:100A0000194B1A6004E0184A12688243164B1A60A8
:100A10007047C9B2002905D0144A12680243134B2B
:100A20001A6004E0114A12688243104B1A60704742
:100A3000C9B2002905D00E4A126802430C4B1A6055
:100A400004E00B4A12688243094B1A6070470000A9
:100A500008380240043802400024F40000127A00F2
:100A60004000002030380240383802404038024010
:100A700044380240F0B400220023002400252A005C
:100A8000102A4AD2012595402B000D681D402C00EC
:100A90009C4240D1056803261700FFB27F00BE408C
:100AA000B543056005680E791700FFB27F00BE40B0
:100AB000354305600D79012D02D00D79022D1AD133
:100AC000856803261700FFB27F00BE40B5438560EE
:100AD00085684E791700FFB27F00BE4035438560C0
:100AE000456801269640B543456045688E79964035
:100AF000B6B235434560C56803261700FFB27F00D4
:100B0000BE40B543C560C568CE791700FFB27F000F
:100B1000BE403543C560521CB2E7F0BC7047F0B42C
:100B200000230024D2B211F00705EDB2AD0012FA95
:100B300005F52B0089B2CD1010EB850589B2CE10DA
:100B400010EB8606366A0F2711F0070C5FFA8CFC53
:100B50005FEA8C0C17FA0CF7BE432E6289B2CD10F7
:100B600010EB85052D6A1D432C0089B2CD1010EBCA
:100B700085052C62F0BC70472DE9F04385B0040078
:100B80000D005FF00009002600275FF00008A8892B
:100B90000028208A814639F44059E88850EA09093A
:100BA000A4F81090A0898146314810EA0909A88864
:100BB000298908436989084350EA0909A4F80C9077
:100BC000A08A814639F44079A88950EA0909A4F835
:100BD000149000A8FFF77CFE2348844202D02348EB
:100BE000844202D10398060001E002980600A08921
:100BF000000408D5192000FB06F029684900B0FB65
:100C0000F1F0070007E0192000FB06F029688900D1
:100C1000B0FBF1F007006420B7FBF0F00001814663
:100C20005FEA1910642101FB10708046A08900045E
:100C30000AD55FEAC80032306421B0FBF1F010F051
:100C4000070050EA090909E05FEA08103230642120
:100C5000B0FBF1F010F00F0050EA0909A4F8089079
:100C600005B0BDE8F0830000001001400014014011
:100C7000F3E9FFFFC9B2002904D0828952F400527F
:100C8000828104E082894DF6FF731A4082817047A9
:100C9000CA05D20D828070478088C005C00D70479C
:100CA000F0B4002300240025002640F66A1789B21C
:100CB000B94206000F00FFB27F09FFB23B0089B2C4
:100CC00011F01F073C000127A7403D00012B01D177
:100CD0000C3604E0022B01D1103600E01436D2B2FB
:100CE000002A03D037682F43376002E03768AF43EC
:100CF0003760F0BC704789B28A0589B2CA43028066
:100D0000704770B40200002300250024002040F644
:100D10006A1689B2B1420E00F6B27609F6B2340014
:100D200089B211F01F063500012616FA05F5012CCF
:100D300002D19689354006E0022C02D1168A354050
:100D400001E0968A354089B20E0AB6B23300012618
:100D500016FA03F316883340002D04D0002B02D07E
:100D60000126300001E000263000C0B270BC7047A0
:100D7000F0B4002300210F22C478002C21D0174C9E
:100D8000246814F4E064D4F5E064240A2300D3F169
:100D900004042100D2B21A4144788C4023008478A4
:100DA000144023431B0104780D4D635504786411EE
:100DB0000C4D0126077817F01F07BE4045F8246048
:100DC00009E004786411084D0126077817F01F0721
:100DD000BE4045F82460F0BC704700000CED00E018
:100DE00000E400E000E100E080E100E02DE9F04FE8
:100DF00093B0814617461D46029102AE002009E0DD
:100E000017F8011B0298C8470290002800F0CF8114
:100E1000B069401CB061387808B9B069C9E12528CB
:100E2000EED10020F0603061706101E040F001001F
:100E300017F8011F2029F9D023290ED02B2904D01F
:100E40002D2906D030290CD00FE040F0020080B2EE
:100E5000EEE740F0040080B2EAE740F0080080B21C
:100E6000E6E740F0100080B2E2E72A290DD12968B8
:100E70000A1D2A6009683162002904D5494231629D
:100E800040F0040080B27F1C13E0002131620BE0CF
:100E9000316A6FF00043994205D001EB810302EB08
:100EA0004301303931627F1C3A78A2F130010A29BE
:100EB000EED339782E291CBF4FF0FF31F1611ED1DE
:100EC00017F8011F2A2906D129680A1D2A60096816
:100ED000F1617F1C13E00021F1610BE0F1696FF01B
:100EE0000043994205D001EB810302EB4301303905
:100EF000F1617F1C3A78A2F130010A29EED3B08467
:100F000039780FF2843000F0C3F908B117F8010BFB
:100F10008DF82E009DF82E00682804BF38786828C8
:100F200003D162208DF82E007F1C0CA8B0603A78A7
:100F3000252A00F0B980582A30D0632A00F0A38017
:100F4000642A18BF692A64D06F2A27D0702A1CD05F
:100F5000732A04D0752A18BF782A1FD09DE028680C
:100F6000011D296000687060F269002A03D500F055
:100F7000B1F930619DE0002100F0D8F900281ABFD6
:100F80007168401AF069306193E02868011D29609A
:100F9000006801900CA87060782170E09DF82E30F8
:100FA0006C2B08BF286811D0712B08BF286802D0AD
:100FB0006A2B28680AD1C01D20F00700286001466E
:100FC00001F108002860D1E9000102E0011D29605B
:100FD00000680190682B04BF01A8008803D0622B31
:100FE00002D101A80078019096F82400000741D5AD
:100FF000019800283ED042F0200078283AD1F068CD
:101000000CA930234354401C411CF1600CA94254EC
:1010100030E09DF82E00622802D0682806D00BE050
:101020002868011D296090F9000009E02868011D69
:101030002960B0F9000003E02868011D29600068FC
:101040000190002805D5F068411CF1600CA92D2302
:101050000FE0B08C810705D5F068411CF1600CA948
:101060002B2306E0C00705D5F068411CF1600CA9F0
:1010700020234354F0680CA940187060114601A861
:1010800000F09AF815E0F068411CF16029680A1D2B
:101090002A600CAA096881540BE0F068411CF160D9
:1010A0000CA92523435422B1F068411CF1600CA91E
:1010B00042547F1C306AF168401A7169401A3169E4
:1010C000A0EB010896F82400400719D420208DF8E1
:1010D0000000B8F1010F13DB44464FF0010A0DF197
:1010E000000B1BF8011B0298C847029000285ED035
:1010F000B069401CB061BAF1010AF2D1641EECD1B2
:10110000F4680DF1300A5CB11AF8011B0298C84767
:10111000029000284BD0B069401CB061641EF3D12E
:1011200030208DF80000D6F814B0BBF1010F10DBB1
:1011300001240DF1000A1AF8011B0298C847029019
:10114000A8B3B069401CB061641EF4D1BBF1010BBF
:10115000EED13469D6F804A054B11AF8011B0298F4
:10116000C847029018B3B069401CB061641EF4D146
:1011700096F8240040077FF54EAE20208DF8000041
:10118000B8F1010FFFF647AE01240DF1000A1AF87D
:10119000011B0298C847029048B1B069401CB06179
:1011A000641EF4D1B8F101083FF435AEECE74FF01E
:1011B000FF3013B0BDE8F08FF0B4C2686F2908BFEC
:1011C000082405D041F02003782B14BF0A241024F2
:1011D000182305682E46642918BF692902D1002DFD
:1011E00048BF7642002E04BF056A002D09D1082CA5
:1011F00027D190F82810090723D517233021D1755E
:101200001FE05D1E2B46B6FBF4F704FB1766303675
:10121000F6B23A2E24BFA1F1510C6644AE543E0002
:1012200003D085689F18BD42EBD3082C09D190F8F4
:101230002810090705D5995C302902D05B1E3021A2
:101240009954C3F1180141619A188260026A91426F
:1012500007DA511A8161018D4FF6EF721140018555
:1012600010E0002A0ED590F8282002F01402102A6F
:1012700008D1426A0369D21A8369D21A531A012B20
:10128000A8BF8361F0BC7047686C747A4C000000A2
:101290000278C9B28A421AB11CBF10F8012FF9E7CF
:1012A00018BF0020704710B450F8041B81B10268C9
:1012B0001218001D50F8043BDC0744BFA9F10104DB
:1012C000E31852F8044B43F8044B091FF9D1EBE73C
:1012D00010BC704700F10103810704D010F8011B16
:1012E00089B18107FAD10268B2F10131914311F05D
:1012F000803F04BF50F8042FF6E710F8011B11B12E
:1013000010F8011BFBE7C01A704750F8041B61B1CD
:1013100050F8042BD30744BFA9F101039A18002306
:1013200042F8043B091FFAD1EFE77047C9B28307BF
:1013300006D0521E22D310F8013B9942F7D11FE08C
:10134000083A13D302F1040241EA012141EA0141C2
:1013500050F8043B121F21BF4B40A3F1013C2CEA83
:10136000030C1CF0803FF3D0C9B2001F083210F804
:10137000013B521E28BF91EA030FF8D818BF012085
:10138000401E7047DFF874030068C00501D40120D7
:1013900000E000207047DFF868030068800401D493
:1013A000012000E000207047DFF858030068C00605
:1013B00001D4012000E000207047DFF84C030068F2
:1013C000400701D4012000E000207047DFF83C0313
:1013D0000068400501D4012000E000207047DFF8DC
:1013E00028030068000701D4012000E000207047B6
:1013F000DFF814030068000601D4012000E000209B
:101400007047DFF8F8020068000501D4012000E011
:101410000020704780B5FFF7B5FF002805D0FFF723
:10142000BAFF002801D0012000E0002002BD80B5F5
:10143000FFF7BAFF002805D0FFF7ADFF002801D065
:10144000012000E0002002BD80B500F078F800F037
:101450002EF801BDDFF8B812C97ADFF8B42288543B
:10146000AB49C97A491CAA4AD172C9B20A2902D326
:10147000A7490022CA727047A548807AA44AD27A46
:10148000904201D1002011E0A148807AA04A805CFE
:1014900001009F48807A401C9D4A9072C0B20A2881
:1014A00002D39B48002282720800C0B2704700B588
:1014B00083B001214FF4F270FFF78BFA00208DF812
:1014C000040000208DF8060000208DF8070002209F
:1014D0008DF805004FF48070009000A98E48FFF74A
:1014E000C9FA4FF40050009000A98C48FFF7C2FAE7
:1014F0001020009000A98A48FFF7BCFA0420009051
:1015000000A98848FFF7B6FA4FF48060009000A960
:101510008548FFF7AFFA0820009000A98148FFF73F
:10152000A9FA8020009000A97E48FFF7A3FA4FF4A3
:101530000060009000A97848FFF79CFA07BD744945
:1015400000228A7272490022CA72714900220A730B
:1015500000210800C0B20A281FD2C0B26D4911EBA9
:10156000001164220A81C0B26A4911EB0011022203
:101570000A71C0B2674911EB001100228A72C0B231
:10158000644911EB00110022CA72C0B2614911EB2B
:10159000001100220A73401CDCE75E4964220A87BE
:1015A0005C49052281F83B205A496422A1F8482071
:1015B0005849052281F84B2056496422A1F8582049
:1015C0005449052281F85B2052496422A1F8682021
:1015D0005049052281F86B204E49544A0A604D4912
:1015E000534A0A614B49534A0A624A49524A0A63BA
:1015F0004849524A0A644749514A0A654549514A8D
:101600000A664449504A0A674249504AC1F8802054
:1016100040494F4AC1F89020704738B50400E4B201
:101620003C4810EB0410050028688047002845D08E
:101630002879052802D2052028715DE028790A283A
:1016400003D22879401C287156E0A87A002809D1D5
:101650000120A872E4B2032000FB04F0401CC0B2D9
:10166000FFF7F8FE2889012846D3E88829898842AF
:101670000FD2E888401CE880298980B288423BD19B
:10168000E4B2032000FB04F0C01CC0B2FFF7E2FE8E
:1016900032E0E87A01282FD3287B401C2873E97AAE
:1016A000C0B2884228D300202873E4B2032000FB94
:1016B00004F0401CC0B2FFF7CDFE1DE028790628DB
:1016C00002D30520287113E02879002803D0287957
:1016D000401E28710CE0A87A012809D10020A872C8
:1016E000E4B2032000FB04F0801CC0B2FFF7B2FE9E
:1016F0000020E8800020287331BD00001020024047
:1017000010080240101C0240101802401014024041
:10171000FC1900206418002000200240000802404C
:10172000001C02400018024000140240851300080B
:1017300097130008A9130008BB130008CD13000875
:10174000DF130008F1130008031400081514000843
:101750002F14000810B500200400E4B20A2C05D2B2
:101760002000C0B2FFF759FF641CF6E710BD026805
:10177000531C03601170704740B2002809D540B275
:1017800010F00F02DFF88432D2180B0102F8043C8B
:1017900004E040B2DFF878220B018354704710B5A3
:1017A0000400601EB0F1807F01D3012011E0601EB3
:1017B000DFF8601208600F215FF0FF30FFF7DCFFF9
:1017C000DFF8540200210160DFF8500207210160B8
:1017D000002010BD10B500200400E4B2042C21D27A
:1017E000E4B20C20DFF8381200FB04100021416045
:1017F000E4B20C20DFF8281200FB04100021816005
:10180000E4B20C20DFF8181200FB04100021417034
:10181000E4B20C20DFF8081200FB04100021017074
:10182000641CDAE700F03BF9DFF8F80100684FF4D8
:101830007A71B0FBF1F0FFF7B2FF00F05CF810BD79
:1018400010B5DFF8E401006800280CD0DFF8D801FB
:101850000068401EDFF8D0110860002803D1DFF8CF
:10186000CC010121017000200400E4B2042C09D253
:10187000E4B20C20DFF8A81100FB041000F027F8F8
:10188000641CF2E7DFF8A8010068401CDFF8A01133
:101890000860DFF89C0100687FF00041884203D1B6
:1018A000DFF88C010021016000F0FEF9DFF884010F
:1018B0000078401CDFF87C110870C0B20A2805D3FC
:1018C000DFF870010021017000F0EAF910BD4168F5
:1018D00000290BD04168491E4160002906D1012131
:1018E00041700178012901D181684160704780B55C
:1018F000FFF7A6FF01BD7FB501210120FFF789F8A1
:1019000048480068400806004B48B6FBF0F0050068
:101910005FF0FF3004000294ADF804500020ADF8F1
:101920000C000020ADF8060001A95FF0804000F037
:10193000BDF901215FF0804000F0EDF91C208DF829
:10194000000004208DF8010000208DF80200012025
:101950008DF8030000A8FFF70BFA7FBD80B50221C8
:101960005FF0804000F0FFF900280DD002215FF009
:10197000804000F011FA002202215FF0804000F068
:10198000E7F92E480068804704215FF0804000F0AE
:10199000EAF900280DD004215FF0804000F0FCF946
:1019A000002204215FF0804000F0D2F92448006852
:1019B000804708215FF0804000F0D5F900280DD065
:1019C00008215FF0804000F0E7F9002208215FF075
:1019D000804000F0BDF91B480068804710215FF08F
:1019E000804000F0C0F900280DD010215FF0804049
:1019F00000F0D2F9002210215FF0804000F0A8F939
:101A000011480068804701BD0000000018ED00E0AB
:101A100000E400E014E000E018E000E010E000E086
:101A20005419002060000020101A0020281A0020FD
:101A3000141A0020291A002040420F00181A002012
:101A40001C1A0020201A0020241A002080B57D488E
:101A5000006850F470007B4908607B48006850F0D3
:101A600001007949086079480021016076480068E2
:101A700077490840744908607648774901607248A0
:101A8000006830F4802070490860744800210160CB
:101A900000F05CF872485FF00061016001BD70B455
:101AA00000200021022200230224684D2D6815F039
:101AB0000C0528000500002D04D0042D06D0082DAB
:101AC00008D032E0674D684E2E6031E0654D674EBC
:101AD0002E602DE05F4D2D68C5F380552B005D4DC8
:101AE0002D6815F03F052C00002B09D05F4DB5FB8C
:101AF000F4F5584E3668C6F388167543290008E099
:101B0000594DB5FBF4F5534E3668C6F38816754348
:101B10002900504D2D68C5F301456D1C6D002A004C
:101B2000B1FBF2F54F4E356002E04E4D4E4E2E6049
:101B3000464D2D68C5F303154D4EAD5D2800494D4A
:101B40002D68C540474E356070BC704782B000209C
:101B50000190002000903C48006850F480303A49E1
:101B600008603948006810F4003000900198401C6B
:101B700001900098002803D10198B0F5A04FF0D152
:101B800031480068800302D50120009001E0002068
:101B900000900098012852D13648006850F08050DB
:101BA000344908603448006850F4404032490860C5
:101BB00026482649096801602448006850F400401E
:101BC000224908602148006850F4A0501F4908606D
:101BD00020482A4901601C48006850F080701A496A
:101BE0000860194800688001FBD52348006850F45C
:101BF00080302149086022480068C003FBD51E4898
:101C0000006850F400301C4908601D4800688003DB
:101C1000FBD51C4840F2057101600C480068800843
:101C200080000A4908600948006850F0020007492E
:101C300008600648006810F00C000828F9D102B0CE
:101C40007047000088ED00E000380240083802408C
:101C5000FFFFF6FE04380240103000240C3802402A
:101C600008ED00E0600000200024F40000127A007B
:101C700050000020403802400070004008544007E7
:101C800004700040003C024080B500F089F8FEF787
:101C90008DFA00F0EBF9FFF7D7FBFFF79BFD01BDD5
:101CA00080B5FFF757FD01BD7047704700220388DC
:101CB0001A00204B98420ED0244B98420BD0B0F122
:101CC000804F08D01C4B984205D01C4B984202D044
:101CD0001B4B984204D14FF68F731A404B881A431E
:101CE000184B984207D0184B984204D04FF6FF4348
:101CF0001A400B891A4302804B68C3620B88038524
:101D00000C4B984202D0114B984201D18B7A03863A
:101D1000012383827047C9B2002904D0028852F09F
:101D20000102028004E002884FF6FE731A4002802E
:101D3000704700000000014000040040000800401F
:101D4000000C00400010004000140040000401405E
:101D5000D2B2002A03D083890B43838102E08389B6
:101D60008B438381704730B402000020002300249D
:101D7000158A0D402B0095890D402C009BB2002B3D
:101D800005D0A4B2002C02D00125280001E00025D6
:101D90002800C0B230BC704789B2CA430282704783
:101DA00080B500F027F800F027F98C4840F6147150
:101DB00001608B4889490968016001BDC9B20029E9
:101DC00005D1864A12688243844B1A6004E0834A34
:101DD00012680243814B1A60814A804B1B68136072
:101DE000704701007D480068084201D0012000E0F2
:101DF0000020704700B583B001214FF4EC70FEF76E
:101E0000E8FD01210120FEF7F5FD0C2200217548B7
:101E1000FEF785FE0C2201217248FEF780FE0C229F
:101E200004217048FEF77BFE0C2205216D48FEF769
:101E300076FE0C2208216B48FEF771FE0C22092168
:101E40006848FEF76CFE0C220A216648FEF767FE22
:101E50000C220E216348FEF762FE0C220F2161481E
:101E6000FEF75DFE02208DF8040003208DF80500CA
:101E700000208DF8060000208DF807004CF233702A
:101E8000009000A95748FEF7F5FD0C22072156489F
:101E9000FEF745FE0C2208215348FEF740FE0C22B7
:101EA00009215148FEF73BFE0C220A214E48FEF75D
:101EB00036FE0C220B214C48FEF731FE0C220C2181
:101EC0004948FEF72CFE0C220D214748FEF727FE5D
:101ED0000C220E214448FEF722FE0C220F2142481C
:101EE000FEF71DFE4FF68070009000A93E48FEF7F9
:101EF000C1FD0C2200213D48FEF711FE0C220121FC
:101F00003A48FEF70CFE0C2209213848FEF707FE7E
:101F100040F20320009000A93448FEF7ABFD0C22EC
:101F200008213348FEF7FBFD0C2209213048FEF75B
:101F3000F6FD0C220A212E48FEF7F1FD0C220B21A2
:101F40002B48FEF7ECFD0C220C212948FEF7E7FD9B
:101F50000C220D212648FEF7E2FD0C220E2124481A
:101F6000FEF7DDFD0C220F212148FEF7D8FD4FF4CE
:101F70007F40009000A91E48FEF77CFD0C22002146
:101F80001C48FEF7CCFD0C2201211A48FEF7C7FDC4
:101F90000C2202211748FEF7C2FD0C22032115482E
:101FA000FEF7BDFD0C2206211248FEF7B8FD0C22FB
:101FB00007211048FEF7B3FD0C2209210D48FEF75A
:101FC000AEFD0C220A210B48FEF7A9FD40F2CF60BE
:101FD000009000A90748FEF74DFD07BD0C1A002030
:101FE00000100064000C0240001002400018024083
:101FF000001C02400020024000B597B00320009072
:1020000000200190062002900120039000200490FF
:1020100000200590002006900220079000200890E4
:102020000020099020200A9000200B9000200C90A6
:1020300000200D9000200E904FF480500F90002053
:10204000109000201190002012900020139000208A
:10205000149000A8159000A8169007A800F068F842
:102060000121022000F011F917B000BD80B5012058
:1020700000F00AF8022000F007F8032000F004F84E
:10208000042000F001F801BD10B50400E4B2012CF9
:1020900005D101214FF48070FFF790FE19E0E4B202
:1020A000022C05D101214FF40070FFF787FE10E0EC
:1020B000E4B2032C05D101214FF48060FFF77EFECE
:1020C00007E0E4B2042C04D101214FF40060FFF7D3
:1020D00075FE10BD38B50400E4B2012C03D14FF4F5
:1020E0008070050015E0E4B2022C03D14FF40070BB
:1020F00005000EE0E4B2032C03D14FF4806005002C
:1021000007E0E4B2042C03D14FF40060050000E0C6
:102110000DE02800FFF765FE002804D0002128000C
:10212000FFF74CFE03E001212800FFF747FE31BD19
:1021300070B40021002300220468A400B4F1C0445C
:1021400024682300DFF87C412340446885682C43E1
:10215000C5682C4305692C4345692C4385692C438C
:10216000C5692C43056A2C43456A2C43856A2C4378
:10217000C56A2C43056B2C43456B2C4323430468F1
:10218000A400B4F1C04423608468082C0BD1046817
:10219000A400B4F1C044246854F040040568AD00C4
:1021A000B5F1C0452C60446BB4F5801F21D10468A3
:1021B000002C1ED0DFF81041246834F47004210094
:1021C0005FF020442468456B2C435FF020452C6071
:1021D0005FF0204424684FF480752C435FF0204565
:1021E0002C60846B2469641E51EA0454DFF8D850D3
:1021F0002C60846B2468856B6D6854EA0514856BCC
:10220000AD6854EA0524856BED6854EA0544856B96
:102210002D6954EA0554856B6D6954EA0564856B34
:10222000AD692C430568AD00B5F1C0456C60846AAA
:10223000B4F5804F20D10468DFF8845055F824406D
:102240002200DFF888402240C46B2468C56B6D68AB
:1022500054EA0514C56BAD6854EA0524C56BED68F6
:1022600054EA0544C56BAD692C4322430468DFF88A
:10227000505045F8242006E00468DFF844507FF011
:10228000704645F8246070BC7047C9B200290AD076
:102290008200B2F1C042126852F001028300B3F131
:1022A000C0431A600AE08200B2F1C0421268DFF84F
:1022B00020301A408300B3F1C0431A607047000019
:1022C000040100A08000E7FF040000A00000F0CFA0
:1022D000FEFF0F0070B592B000260025FFF7D4FC7A
:1022E00000F076F800F05DF801200500FFF7DDFC56
:1022F000EDB2002D10D00020050036B23200594951
:1023000001A800F0E7F801A8FEF7E4FF020092B28E
:1023100001A90020FDF778FF00A90020FDF794FF38
:10232000002819D09DF80000312806D014D3332896
:102330000BD006D334280CD00EE00120FFF7CAFEE4
:102340000AE00220FFF7C6FE06E00320FFF7C2FE08
:1023500002E00420FFF7BEFEFFF78EF80400E4B2AF
:10236000012CC3D3E4B220000A2810D00D2812D0CB
:10237000102804D0132806D0162810D010E00A3EEA
:1023800001200500B2E70A3601200500AEE7761C01
:1023900001200500AAE7761E01200500A6E7A5E7B3
:1023A000A4E780B5304800F0AFF8304800F0ACF852
:1023B0002F4800F0A9F82F4800F0A6F82E4800F0AA
:1023C000A3F82E4800F0A0F82D4800F09DF801BDBC
:1023D00070B52C48006804002B48006805002B48A5
:1023E000006806002A4800682A49B0FBF1F12A4833
:1023F00000F08AF823002A003100284800F084F811
:1024000016A000F081F8264800F07EF825492648FD
:1024100000F07AF812A1254800F076F82449254802
:1024200000F072F8012306220121234800F06CF825
:10243000224800F069F8224800F066F8214800F0D0
:1024400063F8214800F060F8204800F05DF820486B
:1024500000F05AF8124800F057F870BD0A0D00005D
:10246000312E3000B0280008D028000828270008A6
:102470001028000824280008382800084C280008E4
:10248000E4250008107AFF1F147AFF1F187AFF1F37
:102490006000002040420F00102600087C27000842
:1024A0002C250008942600086028000874280008DD
:1024B000DC28000888280008AC250008F42800085B
:1024C000942700089C2800084427000808270008D3
:1024D000BC2600080CB41CB5044604A80190009466
:1024E00001AB0A4600A9074878441830FEF77EFC85
:1024F000009900220A7000285CBF0098001B16BCDF
:102500005DF80CFB6BF2FFFF0EB400B582B003A9BF
:10251000009100AB02460121034878440A30FEF7DF
:1025200065FC06BC5DF810FBC50200002A2A2A2AB9
:102530002A2A2A2A2A2A2A2A2A2A2A2A2A2A2A2AFB
:102540002A2A2A2A2A2A2A2A2A2A2A2A2A2A2A2AEB
:102550002A2A2A2A2A2A2A2A2A2A2A2A2A2A2A2ADB
:102560002A2A2A2A2A2A2A2A2A0A0D0070470848D3
:1025700000221100C9B22A2909D2C9B20A5C054B4E
:102580001A80054A12885206FBD5491CF2E7FEE77D
:102590003C2600080410014000100140FEE7FEE761
:1025A000FEE7704770477047704700002A20B9CC9B
:1025B000BCFEBFE2B0E6B1BE203A205625642E250F
:1025C000642E2564202853544D3332463478785F86
:1025D0005374645065726970685F4472697665729D
:1025E000290D0A00322E205043C9CFCAE4C8EBCAD5
:1025F000FDD7D6312D34BFD8D6C6BFAAB7A2B0E515
:10260000C9CFB5C44C4544D6B8CABEB5C60D0A003C
:102610000D0A435055203A2053544D33324634323C
:102620003942492C204C5146503230382C20D6F7B4
:10263000C6B53A2025644D487A0D0A000D0A456E4C
:1026400074657220486172644661756C745F48619C
:102650006E646C65722C2053797374656D204861CB
:102660006C742E0D0A00000010B5084979441C3125
:10267000074C7C441A34A14206D0081D0A68511840
:1026800088470146A142F8D110BD00BF58000000A4
:102690007800000056362DB4AEBFDABACD5043BB39
:1026A000FACDA8D0C5A3A8B4AEBFDAD6D0B6CFA114
:1026B000A24649464FBBFAD6C6A3A9002A20436FBB
:1026C00070797269676874207777772E61726D66AA
:1026D0006C792E636F6D20B0B2B8BBC0B3B5E7D7CD
:1026E000D30D0A0027ECFFFFC8190000640000208A
:1026F00000000000B3EBFFFF64000000580300007F
:1027000000000020000000002A20CCD4B1A6B5EAC9
:102710003A2061726D666C792E74616F62616F2E02
:10272000636F6D0D0A000000312E20D2A1B8CBBF1F
:10273000D8D6C6636F756E74BCC6CAFDD6B50D0A11
:10274000000000002A20456D61696C203A2061720A
:102750006D666C794071712E636F6D200D0A0000FB
:102760004EF68851CEF20001086840F4700008600F
:102770004FF00070E1EE100A704700005549442008
:102780003D202530385820253038582025303858FD
:102790000A0D00002A205151202020203A203132F9
:1027A0003935373434363330200D0A0000F009F85B
:1027B000002801D0FFF758FF0020FFF78BFD00F045
:1027C00002F80120704700F001B8000007463846C3
:1027D00000F002F8FBE7000080B5C046C046024AA0
:1027E00011001820ABBEFBE72600020038B50446F6
:1027F0000D46284600F006F8A84218BF00242046DF
:1028000032BD00000149FEF759B800BF00000020AA
:102810002020202020C9CFBCFC203D202B310D0AD8
:10282000000000002020202020CFC2BCFC203D2042
:102830002D310D0A000000002020202020D7F3BCFD
:10284000FC203D202D31300D0A00000020202020EA
:1028500020D3D2BCFC203D202B31300D0A000000DB
:102860002A20C0FDB3CCC3FBB3C62020203A2025CC
:10287000730D0A002A20C0FDB3CCB0E6B1BE202003
:10288000203A2025730D0A002A20B7A2B2BCC8D571
:10289000C6DA2020203A2025730D0A002A20CDFA1E
:1028A000CDFA20203A2061726D666C790D0A000025
:1028B000636F756E74203D20253664200D00000086
:1028C00001488047014800474D1A0008E9280008E0
:1028D000B2D9D7F7CCE1CABE3A0D0A003230313551
:1028E0002D31322D31320000C046C046FFF738FF8F
:1028F000FFF75CFF2A200D0A00000000FFF7FEBF73
:10290000FFF7FEBFFFF7FEBFFFF7FEBFFFF7FEBFFB
:10291000FFF7FEBFFFF7FEBFFFF7FEBFFFF7FEBFEB
:10292000FFF7FEBFFFF7FEBFFFF7FEBFFFF7FEBFDB
:10293000FFF7FEBFFFF7FEBFFFF7FEBFFFF7FEBFCB
:10294000FFF7FEBFFFF7FEBFFFF7FEBFFFF7FEBFBB
:10295000FFF7FEBFFFF7FEBFFFF7FEBFFFF7FEBFAB
:10296000FFF7FEBFFFF7FEBFFFF7FEBFFFF7FEBF9B
:10297000FFF7FEBFFFF7FEBFFFF7FEBFFFF7FEBF8B
:10298000FFF7FEBFFFF7FEBFFFF7FEBFFFF7FEBF7B
:10299000FFF7FEBFFFF7FEBFFFF7FEBFFFF7FEBF6B
:1029A000FFF7FEBFFFF7FEBFFFF7FEBFFFF7FEBF5B
:1029B000FFF7FEBFFFF7FEBFFFF7FEBFFFF7FEBF4B
:1029C000FFF7FEBFFFF7FEBFFFF7FEBFFFF7FEBF3B
:1029D000FFF7FEBFFFF7FEBFFFF7FEBFFFF7FEBF2B
:1029E000FFF7FEBFFFF7FEBFFFF7FEBFFFF7FEBF1B
:1029F000FFF7FEBFFFF7FEBFFFF7FEBFFFF7FEBF0B
:102A0000FFF7FEBFFFF7FEBFFFF7FEBFFFF7FEBFFA
:102A1000FFF7FEBFFFF7FEBFFFF7FEBFFFF7FEBFEA
:102A2000FFF7FEBFFFF7FEBFFFF7FEBFFFF7FEBFDA
:102A3000FFF7FEBFFFF7FEBFFFF7FEBFFFF7FEBFCA
:102A4000FFF7FEBFFFF7FEBFFFF7FEBFFFF7FEBFBA
:102A5000FFF7FEBF020401010419002054190020F1
:102A60000419002004190020041900203D00002052
:102A70002400002000000000000000000000000012
:102A80000000000000000000000000000000000046
:102A90000000000000000000010203040102030422
:102AA00006070809000000000000000001020304FE
:082AB000060708090095BA0AA7
:04000005080028E9DE
:00000001FF
